{
  "contractName": "Voting",
  "abi": [
    {
      "anonymous": false,
      "inputs": [
        {
          "indexed": true,
          "internalType": "address",
          "name": "previousOwner",
          "type": "address"
        },
        {
          "indexed": true,
          "internalType": "address",
          "name": "newOwner",
          "type": "address"
        }
      ],
      "name": "OwnershipTransferred",
      "type": "event"
    },
    {
      "anonymous": false,
      "inputs": [
        {
          "indexed": false,
          "internalType": "uint256",
          "name": "_proposalId",
          "type": "uint256"
        }
      ],
      "name": "ProposalRegistered",
      "type": "event"
    },
    {
      "anonymous": false,
      "inputs": [
        {
          "indexed": false,
          "internalType": "address",
          "name": "_voter",
          "type": "address"
        },
        {
          "indexed": false,
          "internalType": "uint256",
          "name": "_proposalId",
          "type": "uint256"
        }
      ],
      "name": "Voted",
      "type": "event"
    },
    {
      "anonymous": false,
      "inputs": [
        {
          "indexed": false,
          "internalType": "address",
          "name": "_voterAddress",
          "type": "address"
        }
      ],
      "name": "VoterRegistered",
      "type": "event"
    },
    {
      "anonymous": false,
      "inputs": [
        {
          "indexed": false,
          "internalType": "enum Voting.WorkflowStatus",
          "name": "_previousStatus",
          "type": "uint8"
        },
        {
          "indexed": false,
          "internalType": "enum Voting.WorkflowStatus",
          "name": "_newStatus",
          "type": "uint8"
        }
      ],
      "name": "WorkflowStatusChange",
      "type": "event"
    },
    {
      "inputs": [],
      "name": "owner",
      "outputs": [
        {
          "internalType": "address",
          "name": "",
          "type": "address"
        }
      ],
      "stateMutability": "view",
      "type": "function",
      "constant": true
    },
    {
      "inputs": [
        {
          "internalType": "uint256",
          "name": "",
          "type": "uint256"
        }
      ],
      "name": "proposalsArray",
      "outputs": [
        {
          "internalType": "string",
          "name": "description",
          "type": "string"
        },
        {
          "internalType": "uint256",
          "name": "voteCount",
          "type": "uint256"
        }
      ],
      "stateMutability": "view",
      "type": "function",
      "constant": true
    },
    {
      "inputs": [],
      "name": "renounceOwnership",
      "outputs": [],
      "stateMutability": "nonpayable",
      "type": "function"
    },
    {
      "inputs": [
        {
          "internalType": "address",
          "name": "newOwner",
          "type": "address"
        }
      ],
      "name": "transferOwnership",
      "outputs": [],
      "stateMutability": "nonpayable",
      "type": "function"
    },
    {
      "inputs": [],
      "name": "winningProposalID",
      "outputs": [
        {
          "internalType": "uint256",
          "name": "",
          "type": "uint256"
        }
      ],
      "stateMutability": "view",
      "type": "function",
      "constant": true
    },
    {
      "inputs": [],
      "name": "workflowStatus",
      "outputs": [
        {
          "internalType": "enum Voting.WorkflowStatus",
          "name": "",
          "type": "uint8"
        }
      ],
      "stateMutability": "view",
      "type": "function",
      "constant": true
    },
    {
      "inputs": [
        {
          "internalType": "address",
          "name": "_addr",
          "type": "address"
        }
      ],
      "name": "getVoter",
      "outputs": [
        {
          "components": [
            {
              "internalType": "bool",
              "name": "isRegistered",
              "type": "bool"
            },
            {
              "internalType": "bool",
              "name": "hasVoted",
              "type": "bool"
            },
            {
              "internalType": "uint256",
              "name": "votedProposalId",
              "type": "uint256"
            }
          ],
          "internalType": "struct Voting.Voter",
          "name": "",
          "type": "tuple"
        }
      ],
      "stateMutability": "view",
      "type": "function",
      "constant": true
    },
    {
      "inputs": [
        {
          "internalType": "uint256",
          "name": "_id",
          "type": "uint256"
        }
      ],
      "name": "getOneProposal",
      "outputs": [
        {
          "components": [
            {
              "internalType": "string",
              "name": "description",
              "type": "string"
            },
            {
              "internalType": "uint256",
              "name": "voteCount",
              "type": "uint256"
            }
          ],
          "internalType": "struct Voting.Proposal",
          "name": "",
          "type": "tuple"
        }
      ],
      "stateMutability": "view",
      "type": "function",
      "constant": true
    },
    {
      "inputs": [],
      "name": "getProposals",
      "outputs": [
        {
          "components": [
            {
              "internalType": "string",
              "name": "description",
              "type": "string"
            },
            {
              "internalType": "uint256",
              "name": "voteCount",
              "type": "uint256"
            }
          ],
          "internalType": "struct Voting.Proposal[]",
          "name": "",
          "type": "tuple[]"
        }
      ],
      "stateMutability": "view",
      "type": "function",
      "constant": true
    },
    {
      "inputs": [],
      "name": "getWinner",
      "outputs": [
        {
          "components": [
            {
              "internalType": "string",
              "name": "description",
              "type": "string"
            },
            {
              "internalType": "uint256",
              "name": "voteCount",
              "type": "uint256"
            }
          ],
          "internalType": "struct Voting.Proposal",
          "name": "",
          "type": "tuple"
        }
      ],
      "stateMutability": "view",
      "type": "function",
      "constant": true
    },
    {
      "inputs": [
        {
          "internalType": "address",
          "name": "_addr",
          "type": "address"
        }
      ],
      "name": "addVoter",
      "outputs": [],
      "stateMutability": "nonpayable",
      "type": "function"
    },
    {
      "inputs": [
        {
          "internalType": "string",
          "name": "_desc",
          "type": "string"
        }
      ],
      "name": "addProposal",
      "outputs": [],
      "stateMutability": "nonpayable",
      "type": "function"
    },
    {
      "inputs": [
        {
          "internalType": "uint256",
          "name": "_id",
          "type": "uint256"
        }
      ],
      "name": "setVote",
      "outputs": [],
      "stateMutability": "nonpayable",
      "type": "function"
    },
    {
      "inputs": [],
      "name": "startProposalsRegistering",
      "outputs": [],
      "stateMutability": "nonpayable",
      "type": "function"
    },
    {
      "inputs": [],
      "name": "endProposalsRegistering",
      "outputs": [],
      "stateMutability": "nonpayable",
      "type": "function"
    },
    {
      "inputs": [],
      "name": "startVotingSession",
      "outputs": [],
      "stateMutability": "nonpayable",
      "type": "function"
    },
    {
      "inputs": [],
      "name": "endVotingSession",
      "outputs": [],
      "stateMutability": "nonpayable",
      "type": "function"
    },
    {
      "inputs": [],
      "name": "tallyVotes",
      "outputs": [],
      "stateMutability": "nonpayable",
      "type": "function"
    }
  ],
  "bytecode": "0x60806040523480156200001157600080fd5b5062000032620000266200003860201b60201c565b6200004060201b60201c565b62000104565b600033905090565b60008060009054906101000a900473ffffffffffffffffffffffffffffffffffffffff169050816000806101000a81548173ffffffffffffffffffffffffffffffffffffffff021916908373ffffffffffffffffffffffffffffffffffffffff1602179055508173ffffffffffffffffffffffffffffffffffffffff168173ffffffffffffffffffffffffffffffffffffffff167f8be0079c531659141344cd1fd0a4f28419497f9722a3daafe3b4186f6b6457e060405160405180910390a35050565b6129aa80620001146000396000f3fe608060405234801561001057600080fd5b50600436106101165760003560e01c8063a7bfab16116100a2578063d4f50f9811610071578063d4f50f981461024b578063ee74c6781461027b578063f2fde38b14610285578063f4ab9adf146102a1578063f86c6779146102bd57610116565b8063a7bfab161461020f578063bdc0143114610219578063c7038a4e14610237578063c88af42f1461024157610116565b8063715018a6116100e9578063715018a61461017b5780638da5cb5b146101855780638e7ea5b2146101a3578063a1edffa2146101c1578063a2788cce146101df57610116565b8063230796ae1461011b5780632fdae3c514610137578063378a21781461015357806362564c481461015d575b600080fd5b61013560048036038101906101309190611a8a565b6102ee565b005b610151600480360381019061014c9190611a41565b6105eb565b005b61015b61082f565b005b610165610a10565b6040516101729190611f2d565b60405180910390f35b610183610b0b565b005b61018d610b93565b60405161019a9190611ee9565b60405180910390f35b6101ab610bbc565b6040516101b891906121e5565b60405180910390f35b6101c9610d09565b6040516101d69190611f4f565b60405180910390f35b6101f960048036038101906101f49190611a8a565b610d1c565b60405161020691906121e5565b60405180910390f35b610217610df4565b005b610221610f4e565b60405161022e9190612222565b60405180910390f35b61023f610f54565b005b6102496110ae565b005b61026560048036038101906102609190611a14565b611207565b6040516102729190612207565b60405180910390f35b6102836112a0565b005b61029f600480360381019061029a9190611a14565b6113fa565b005b6102bb60048036038101906102b69190611a14565b6114f2565b005b6102d760048036038101906102d29190611a8a565b611710565b6040516102e5929190611fb5565b60405180910390f35b600460003373ffffffffffffffffffffffffffffffffffffffff1673ffffffffffffffffffffffffffffffffffffffff16815260200190815260200160002060000160009054906101000a900460ff1661037d576040517f08c379a000000000000000000000000000000000000000000000000000000000815260040161037490612005565b60405180910390fd5b60036005811115610391576103906124b7565b5b600260009054906101000a900460ff1660058111156103b3576103b26124b7565b5b146103f3576040517f08c379a00000000000000000000000000000000000000000000000000000000081526004016103ea90612045565b60405180910390fd5b60011515600460003373ffffffffffffffffffffffffffffffffffffffff1673ffffffffffffffffffffffffffffffffffffffff16815260200190815260200160002060000160019054906101000a900460ff161515141561048a576040517f08c379a0000000000000000000000000000000000000000000000000000000008152600401610481906121c5565b60405180910390fd5b6003805490508111156104d2576040517f08c379a00000000000000000000000000000000000000000000000000000000081526004016104c9906120c5565b60405180910390fd5b80600460003373ffffffffffffffffffffffffffffffffffffffff1673ffffffffffffffffffffffffffffffffffffffff168152602001908152602001600020600101819055506001600460003373ffffffffffffffffffffffffffffffffffffffff1673ffffffffffffffffffffffffffffffffffffffff16815260200190815260200160002060000160016101000a81548160ff0219169083151502179055506003818154811061058857610587612515565b5b906000526020600020906002020160010160008154809291906105aa9061243f565b91905055507f4d99b957a2bc29a30ebd96a7be8e68fe50a3c701db28a91436490b7d53870ca433826040516105e0929190611f04565b60405180910390a150565b600460003373ffffffffffffffffffffffffffffffffffffffff1673ffffffffffffffffffffffffffffffffffffffff16815260200190815260200160002060000160009054906101000a900460ff1661067a576040517f08c379a000000000000000000000000000000000000000000000000000000000815260040161067190612005565b60405180910390fd5b6001600581111561068e5761068d6124b7565b5b600260009054906101000a900460ff1660058111156106b0576106af6124b7565b5b146106f0576040517f08c379a00000000000000000000000000000000000000000000000000000000081526004016106e790612065565b60405180910390fd5b6040516020016106ff90612125565b60405160208183030381529060405280519060200120816040516020016107269190611f93565b60405160208183030381529060405280519060200120141561077d576040517f08c379a0000000000000000000000000000000000000000000000000000000008152600401610774906120a5565b60405180910390fd5b610785611898565b818160000181905250600381908060018154018082558091505060019003906000526020600020906002020160009091909190915060008201518160000190805190602001906107d69291906118b2565b506020820151816001015550507f92e393e9b54e2f801d3ea4beb0c5e71a21cc34a5d34b77d0fb8a3aa1650dc18f600160038054905061081691906122f9565b6040516108239190612222565b60405180910390a15050565b6108376117cc565b73ffffffffffffffffffffffffffffffffffffffff16610855610b93565b73ffffffffffffffffffffffffffffffffffffffff16146108ab576040517f08c379a00000000000000000000000000000000000000000000000000000000081526004016108a290612085565b60405180910390fd5b600460058111156108bf576108be6124b7565b5b600260009054906101000a900460ff1660058111156108e1576108e06124b7565b5b14610921576040517f08c379a000000000000000000000000000000000000000000000000000000000815260040161091890612185565b60405180910390fd5b600080600090505b60038054905081101561099f576003828154811061094a57610949612515565b5b906000526020600020906002020160010154600382815481106109705761096f612515565b5b906000526020600020906002020160010154111561098c578091505b80806109979061243f565b915050610929565b50806001819055506005600260006101000a81548160ff021916908360058111156109cd576109cc6124b7565b5b02179055507f0a97a4ee45751e2abf3e4fc8946939630b11b371ea8ae39ccdc3056e98f5cc3f60046005604051610a05929190611f6a565b60405180910390a150565b60606003805480602002602001604051908101604052809291908181526020016000905b82821015610b025783829060005260206000209060020201604051806040016040529081600082018054610a67906123dc565b80601f0160208091040260200160405190810160405280929190818152602001828054610a93906123dc565b8015610ae05780601f10610ab557610100808354040283529160200191610ae0565b820191906000526020600020905b815481529060010190602001808311610ac357829003601f168201915b5050505050815260200160018201548152505081526020019060010190610a34565b50505050905090565b610b136117cc565b73ffffffffffffffffffffffffffffffffffffffff16610b31610b93565b73ffffffffffffffffffffffffffffffffffffffff1614610b87576040517f08c379a0000000000000000000000000000000000000000000000000000000008152600401610b7e90612085565b60405180910390fd5b610b9160006117d4565b565b60008060009054906101000a900473ffffffffffffffffffffffffffffffffffffffff16905090565b610bc4611898565b600580811115610bd757610bd66124b7565b5b600260009054906101000a900460ff166005811115610bf957610bf86124b7565b5b14610c39576040517f08c379a0000000000000000000000000000000000000000000000000000000008152600401610c3090612105565b60405180910390fd5b600360015481548110610c4f57610c4e612515565b5b9060005260206000209060020201604051806040016040529081600082018054610c78906123dc565b80601f0160208091040260200160405190810160405280929190818152602001828054610ca4906123dc565b8015610cf15780601f10610cc657610100808354040283529160200191610cf1565b820191906000526020600020905b815481529060010190602001808311610cd457829003601f168201915b50505050508152602001600182015481525050905090565b600260009054906101000a900460ff1681565b610d24611898565b60038281548110610d3857610d37612515565b5b9060005260206000209060020201604051806040016040529081600082018054610d61906123dc565b80601f0160208091040260200160405190810160405280929190818152602001828054610d8d906123dc565b8015610dda5780601f10610daf57610100808354040283529160200191610dda565b820191906000526020600020905b815481529060010190602001808311610dbd57829003601f168201915b505050505081526020016001820154815250509050919050565b610dfc6117cc565b73ffffffffffffffffffffffffffffffffffffffff16610e1a610b93565b73ffffffffffffffffffffffffffffffffffffffff1614610e70576040517f08c379a0000000000000000000000000000000000000000000000000000000008152600401610e6790612085565b60405180910390fd5b60036005811115610e8457610e836124b7565b5b600260009054906101000a900460ff166005811115610ea657610ea56124b7565b5b14610ee6576040517f08c379a0000000000000000000000000000000000000000000000000000000008152600401610edd90612045565b60405180910390fd5b6004600260006101000a81548160ff02191690836005811115610f0c57610f0b6124b7565b5b02179055507f0a97a4ee45751e2abf3e4fc8946939630b11b371ea8ae39ccdc3056e98f5cc3f60036004604051610f44929190611f6a565b60405180910390a1565b60015481565b610f5c6117cc565b73ffffffffffffffffffffffffffffffffffffffff16610f7a610b93565b73ffffffffffffffffffffffffffffffffffffffff1614610fd0576040517f08c379a0000000000000000000000000000000000000000000000000000000008152600401610fc790612085565b60405180910390fd5b60006005811115610fe457610fe36124b7565b5b600260009054906101000a900460ff166005811115611006576110056124b7565b5b14611046576040517f08c379a000000000000000000000000000000000000000000000000000000000815260040161103d90612145565b60405180910390fd5b6001600260006101000a81548160ff0219169083600581111561106c5761106b6124b7565b5b02179055507f0a97a4ee45751e2abf3e4fc8946939630b11b371ea8ae39ccdc3056e98f5cc3f600060016040516110a4929190611f6a565b60405180910390a1565b6110b66117cc565b73ffffffffffffffffffffffffffffffffffffffff166110d4610b93565b73ffffffffffffffffffffffffffffffffffffffff161461112a576040517f08c379a000000000000000000000000000000000000000000000000000000000815260040161112190612085565b60405180910390fd5b6001600581111561113e5761113d6124b7565b5b600260009054906101000a900460ff1660058111156111605761115f6124b7565b5b146111a0576040517f08c379a000000000000000000000000000000000000000000000000000000000815260040161119790612165565b60405180910390fd5b60028060006101000a81548160ff021916908360058111156111c5576111c46124b7565b5b02179055507f0a97a4ee45751e2abf3e4fc8946939630b11b371ea8ae39ccdc3056e98f5cc3f600160026040516111fd929190611f6a565b60405180910390a1565b61120f611938565b600460008373ffffffffffffffffffffffffffffffffffffffff1673ffffffffffffffffffffffffffffffffffffffff1681526020019081526020016000206040518060600160405290816000820160009054906101000a900460ff161515151581526020016000820160019054906101000a900460ff161515151581526020016001820154815250509050919050565b6112a86117cc565b73ffffffffffffffffffffffffffffffffffffffff166112c6610b93565b73ffffffffffffffffffffffffffffffffffffffff161461131c576040517f08c379a000000000000000000000000000000000000000000000000000000000815260040161131390612085565b60405180910390fd5b600260058111156113305761132f6124b7565b5b600260009054906101000a900460ff166005811115611352576113516124b7565b5b14611392576040517f08c379a0000000000000000000000000000000000000000000000000000000008152600401611389906120e5565b60405180910390fd5b6003600260006101000a81548160ff021916908360058111156113b8576113b76124b7565b5b02179055507f0a97a4ee45751e2abf3e4fc8946939630b11b371ea8ae39ccdc3056e98f5cc3f600260036040516113f0929190611f6a565b60405180910390a1565b6114026117cc565b73ffffffffffffffffffffffffffffffffffffffff16611420610b93565b73ffffffffffffffffffffffffffffffffffffffff1614611476576040517f08c379a000000000000000000000000000000000000000000000000000000000815260040161146d90612085565b60405180910390fd5b600073ffffffffffffffffffffffffffffffffffffffff168173ffffffffffffffffffffffffffffffffffffffff1614156114e6576040517f08c379a00000000000000000000000000000000000000000000000000000000081526004016114dd90611fe5565b60405180910390fd5b6114ef816117d4565b50565b6114fa6117cc565b73ffffffffffffffffffffffffffffffffffffffff16611518610b93565b73ffffffffffffffffffffffffffffffffffffffff161461156e576040517f08c379a000000000000000000000000000000000000000000000000000000000815260040161156590612085565b60405180910390fd5b60006005811115611582576115816124b7565b5b600260009054906101000a900460ff1660058111156115a4576115a36124b7565b5b146115e4576040517f08c379a00000000000000000000000000000000000000000000000000000000081526004016115db906121a5565b60405180910390fd5b60011515600460008373ffffffffffffffffffffffffffffffffffffffff1673ffffffffffffffffffffffffffffffffffffffff16815260200190815260200160002060000160009054906101000a900460ff161515141561167b576040517f08c379a000000000000000000000000000000000000000000000000000000000815260040161167290612025565b60405180910390fd5b6001600460008373ffffffffffffffffffffffffffffffffffffffff1673ffffffffffffffffffffffffffffffffffffffff16815260200190815260200160002060000160006101000a81548160ff0219169083151502179055507fb6be2187d059cc2a55fe29e0e503b566e1e0f8c8780096e185429350acffd3dd816040516117059190611ee9565b60405180910390a150565b6003818154811061172057600080fd5b9060005260206000209060020201600091509050806000018054611743906123dc565b80601f016020809104026020016040519081016040528092919081815260200182805461176f906123dc565b80156117bc5780601f10611791576101008083540402835291602001916117bc565b820191906000526020600020905b81548152906001019060200180831161179f57829003601f168201915b5050505050908060010154905082565b600033905090565b60008060009054906101000a900473ffffffffffffffffffffffffffffffffffffffff169050816000806101000a81548173ffffffffffffffffffffffffffffffffffffffff021916908373ffffffffffffffffffffffffffffffffffffffff1602179055508173ffffffffffffffffffffffffffffffffffffffff168173ffffffffffffffffffffffffffffffffffffffff167f8be0079c531659141344cd1fd0a4f28419497f9722a3daafe3b4186f6b6457e060405160405180910390a35050565b604051806040016040528060608152602001600081525090565b8280546118be906123dc565b90600052602060002090601f0160209004810192826118e05760008555611927565b82601f106118f957805160ff1916838001178555611927565b82800160010185558215611927579182015b8281111561192657825182559160200191906001019061190b565b5b509050611934919061195d565b5090565b6040518060600160405280600015158152602001600015158152602001600081525090565b5b8082111561197657600081600090555060010161195e565b5090565b600061198d61198884612262565b61223d565b9050828152602081018484840111156119a9576119a8612578565b5b6119b484828561239a565b509392505050565b6000813590506119cb81612946565b92915050565b600082601f8301126119e6576119e5612573565b5b81356119f684826020860161197a565b91505092915050565b600081359050611a0e8161295d565b92915050565b600060208284031215611a2a57611a29612582565b5b6000611a38848285016119bc565b91505092915050565b600060208284031215611a5757611a56612582565b5b600082013567ffffffffffffffff811115611a7557611a7461257d565b5b611a81848285016119d1565b91505092915050565b600060208284031215611aa057611a9f612582565b5b6000611aae848285016119ff565b91505092915050565b6000611ac38383611e0f565b905092915050565b611ad48161232d565b82525050565b6000611ae5826122a3565b611aef81856122c6565b935083602082028501611b0185612293565b8060005b85811015611b3d5784840389528151611b1e8582611ab7565b9450611b29836122b9565b925060208a01995050600181019050611b05565b50829750879550505050505092915050565b611b588161233f565b82525050565b611b6781612388565b82525050565b6000611b78826122ae565b611b8281856122d7565b9350611b928185602086016123a9565b611b9b81612587565b840191505092915050565b6000611bb1826122ae565b611bbb81856122e8565b9350611bcb8185602086016123a9565b611bd481612587565b840191505092915050565b6000611bec6026836122e8565b9150611bf782612598565b604082019050919050565b6000611c0f6018836122e8565b9150611c1a826125e7565b602082019050919050565b6000611c326012836122e8565b9150611c3d82612610565b602082019050919050565b6000611c556021836122e8565b9150611c6082612639565b604082019050919050565b6000611c78601d836122e8565b9150611c8382612688565b602082019050919050565b6000611c9b6020836122e8565b9150611ca6826126b1565b602082019050919050565b6000611cbe6023836122e8565b9150611cc9826126da565b604082019050919050565b6000611ce16012836122e8565b9150611cec82612729565b602082019050919050565b6000611d04602b836122e8565b9150611d0f82612752565b604082019050919050565b6000611d276019836122e8565b9150611d32826127a1565b602082019050919050565b6000611d4a6000836122e8565b9150611d55826127ca565b600082019050919050565b6000611d6d6029836122e8565b9150611d78826127cd565b604082019050919050565b6000611d906028836122e8565b9150611d9b8261281c565b604082019050919050565b6000611db3602a836122e8565b9150611dbe8261286b565b604082019050919050565b6000611dd66023836122e8565b9150611de1826128ba565b604082019050919050565b6000611df96016836122e8565b9150611e0482612909565b602082019050919050565b60006040830160008301518482036000860152611e2c8282611b6d565b9150506020830151611e416020860182611ecb565b508091505092915050565b60006040830160008301518482036000860152611e698282611b6d565b9150506020830151611e7e6020860182611ecb565b508091505092915050565b606082016000820151611e9f6000850182611b4f565b506020820151611eb26020850182611b4f565b506040820151611ec56040850182611ecb565b50505050565b611ed48161237e565b82525050565b611ee38161237e565b82525050565b6000602082019050611efe6000830184611acb565b92915050565b6000604082019050611f196000830185611acb565b611f266020830184611eda565b9392505050565b60006020820190508181036000830152611f478184611ada565b905092915050565b6000602082019050611f646000830184611b5e565b92915050565b6000604082019050611f7f6000830185611b5e565b611f8c6020830184611b5e565b9392505050565b60006020820190508181036000830152611fad8184611ba6565b905092915050565b60006040820190508181036000830152611fcf8185611ba6565b9050611fde6020830184611eda565b9392505050565b60006020820190508181036000830152611ffe81611bdf565b9050919050565b6000602082019050818103600083015261201e81611c02565b9050919050565b6000602082019050818103600083015261203e81611c25565b9050919050565b6000602082019050818103600083015261205e81611c48565b9050919050565b6000602082019050818103600083015261207e81611c6b565b9050919050565b6000602082019050818103600083015261209e81611c8e565b9050919050565b600060208201905081810360008301526120be81611cb1565b9050919050565b600060208201905081810360008301526120de81611cd4565b9050919050565b600060208201905081810360008301526120fe81611cf7565b9050919050565b6000602082019050818103600083015261211e81611d1a565b9050919050565b6000602082019050818103600083015261213e81611d3d565b9050919050565b6000602082019050818103600083015261215e81611d60565b9050919050565b6000602082019050818103600083015261217e81611d83565b9050919050565b6000602082019050818103600083015261219e81611da6565b9050919050565b600060208201905081810360008301526121be81611dc9565b9050919050565b600060208201905081810360008301526121de81611dec565b9050919050565b600060208201905081810360008301526121ff8184611e4c565b905092915050565b600060608201905061221c6000830184611e89565b92915050565b60006020820190506122376000830184611eda565b92915050565b6000612247612258565b9050612253828261240e565b919050565b6000604051905090565b600067ffffffffffffffff82111561227d5761227c612544565b5b61228682612587565b9050602081019050919050565b6000819050602082019050919050565b600081519050919050565b600081519050919050565b6000602082019050919050565b600082825260208201905092915050565b600082825260208201905092915050565b600082825260208201905092915050565b60006123048261237e565b915061230f8361237e565b92508282101561232257612321612488565b5b828203905092915050565b60006123388261235e565b9050919050565b60008115159050919050565b600081905061235982612932565b919050565b600073ffffffffffffffffffffffffffffffffffffffff82169050919050565b6000819050919050565b60006123938261234b565b9050919050565b82818337600083830152505050565b60005b838110156123c75780820151818401526020810190506123ac565b838111156123d6576000848401525b50505050565b600060028204905060018216806123f457607f821691505b60208210811415612408576124076124e6565b5b50919050565b61241782612587565b810181811067ffffffffffffffff8211171561243657612435612544565b5b80604052505050565b600061244a8261237e565b91507fffffffffffffffffffffffffffffffffffffffffffffffffffffffffffffffff82141561247d5761247c612488565b5b600182019050919050565b7f4e487b7100000000000000000000000000000000000000000000000000000000600052601160045260246000fd5b7f4e487b7100000000000000000000000000000000000000000000000000000000600052602160045260246000fd5b7f4e487b7100000000000000000000000000000000000000000000000000000000600052602260045260246000fd5b7f4e487b7100000000000000000000000000000000000000000000000000000000600052603260045260246000fd5b7f4e487b7100000000000000000000000000000000000000000000000000000000600052604160045260246000fd5b600080fd5b600080fd5b600080fd5b600080fd5b6000601f19601f8301169050919050565b7f4f776e61626c653a206e6577206f776e657220697320746865207a65726f206160008201527f6464726573730000000000000000000000000000000000000000000000000000602082015250565b7f596f75277265206e6f74206120766f7465722f6f776e65720000000000000000600082015250565b7f416c726561647920726567697374657265640000000000000000000000000000600082015250565b7f566f74696e672073657373696f6e20686176656e74207374617274656420796560008201527f7400000000000000000000000000000000000000000000000000000000000000602082015250565b7f50726f706f73616c7320617265206e6f7420616c6c6f77656420796574000000600082015250565b7f4f776e61626c653a2063616c6c6572206973206e6f7420746865206f776e6572600082015250565b7f566f7573206e6520706f7576657a20706173206e65207269656e2070726f706f60008201527f7365720000000000000000000000000000000000000000000000000000000000602082015250565b7f50726f706f73616c206e6f7420666f756e640000000000000000000000000000600082015250565b7f5265676973746572696e672070726f706f73616c73207068617365206973206e60008201527f6f742066696e6973686564000000000000000000000000000000000000000000602082015250565b7f566f74657320617265206e6f742074616c6c6965642079657400000000000000600082015250565b50565b7f5265676973746572696e672070726f706f73616c732063616e7420626520737460008201527f6172746564206e6f770000000000000000000000000000000000000000000000602082015250565b7f5265676973746572696e672070726f706f73616c7320686176656e742073746160008201527f7274656420796574000000000000000000000000000000000000000000000000602082015250565b7f43757272656e7420737461747573206973206e6f7420766f74696e672073657360008201527f73696f6e20656e64656400000000000000000000000000000000000000000000602082015250565b7f566f7465727320726567697374726174696f6e206973206e6f74206f70656e2060008201527f7965740000000000000000000000000000000000000000000000000000000000602082015250565b7f596f75206861766520616c726561647920766f74656400000000000000000000600082015250565b60068110612943576129426124b7565b5b50565b61294f8161232d565b811461295a57600080fd5b50565b6129668161237e565b811461297157600080fd5b5056fea2646970667358221220c1b5c7d7c1bbb99f1be99be1b4c3281bf0af31149dec29641ef16d943a0137cd64736f6c63430008070033",
  "immutableReferences": {},
  "source": "// SPDX-License-Identifier: MIT\n\npragma solidity 0.8.7;\nimport \"../node_modules/@openzeppelin/contracts/access/Ownable.sol\";\n\n/** @title Voting contract\n    @notice An owner can add voters, they can set proposals, then vote for them, and the choosen one win\n    @author Cyril Castagnet. */\ncontract Voting is Ownable {\n\n    // for front reason, proposals have now a getter\n    // deleting useless comment about draw possibilities\n\n    /** @notice Store the ID of the winning poposal after tally votes */\n    uint public winningProposalID;\n    \n    /** @notice Set the structure of a Voter\n    *   @param isRegistered is he a voter? \n    *   @param hasVoted has he voted yet? \n    *   @param votedProposalId if so, for which proposal? */\n    struct Voter {\n        bool isRegistered;\n        bool hasVoted;\n        uint votedProposalId;\n    }\n\n    /** @notice set the structure of a Proposal\n    *   @param description description of the proposal, can be whatever we want, a candidate, an idee...\n    *   @param voteCount how many backers? */\n    struct Proposal {\n        string description;\n        uint voteCount;\n    }\n\n    /** @notice set the structure of workflow status \n    * @dev the naming is explicit, we should go from one to the next */\n    enum  WorkflowStatus {\n        RegisteringVoters,\n        ProposalsRegistrationStarted,\n        ProposalsRegistrationEnded,\n        VotingSessionStarted,\n        VotingSessionEnded,\n        VotesTallied\n    }\n\n    /** @notice set the var we use for the contract state */\n    WorkflowStatus public workflowStatus;\n\n    /** @notice set proposal storage \n    *   @dev array because we will loop on them */\n    Proposal[] public proposalsArray;\n\n    /** @notice set voters storage */\n    mapping (address => Voter) private voters;\n\n    /** @notice used to store the address of registered voters\n    *   @param _voterAddress the address of the registered voter */\n    event VoterRegistered(address _voterAddress);\n\n    /** @notice used to listen on workflow status changes\n    *   @param _previousStatus the status before \n    *   @param _newStatus the status after */\n    event WorkflowStatusChange(WorkflowStatus _previousStatus, WorkflowStatus _newStatus);\n\n    /** @notice used to store the proposals registered\n    *   @param _proposalId the ID of the new proposal */\n    event ProposalRegistered(uint _proposalId);\n    \n    /** @notice used when a voter voter \n    *   @param _voter the address of the voter\n    *   @param _proposalId the ID of the proposal voted */\n    event Voted (address _voter, uint _proposalId);\n\n\n    /** @notice verify if the sender address is registered as a voter */\n    modifier onlyVoters() {\n        require(voters[msg.sender].isRegistered, \"You're not a voter/owner\");\n        _;\n    }\n    \n    // ::::::::::::: GETTERS ::::::::::::: //\n\n    /** @notice Returns the voter object of the given address\n    *   @param _addr the address of the voter */\n    function getVoter(address _addr) external view returns (Voter memory) {\n        return voters[_addr];\n    }\n\n    /** @notice Returns the proposal object of the given ID\n    *   @param _id the id of the proposal */\n    function getOneProposal(uint _id) external view returns (Proposal memory) {\n        return proposalsArray[_id];\n    }\n\n    /** @notice Returns the proposal array */\n    function getProposals() external view returns (Proposal[] memory) {\n        return proposalsArray;\n    }\n\n    /** @notice Returns the complete proposal  */\n    function getWinner() external view returns (Proposal memory) {\n        require(workflowStatus == WorkflowStatus.VotesTallied, 'Votes are not tallied yet');\n        return proposalsArray[winningProposalID];\n    }\n \n    // ::::::::::::: REGISTRATION ::::::::::::: // \n\n    /** @notice Admin can register a voter \n    *   @param _addr the address of the voter */\n    function addVoter(address _addr) public onlyOwner {\n        require(workflowStatus == WorkflowStatus.RegisteringVoters, 'Voters registration is not open yet');\n        require(voters[_addr].isRegistered != true, 'Already registered');\n    \n        voters[_addr].isRegistered = true;\n        emit VoterRegistered(_addr);\n    }\n \n    // ::::::::::::: PROPOSAL ::::::::::::: // \n\n    /** @notice Voter can register a new proposal\n    *   @param _desc the description of the proposal */\n    function addProposal(string memory _desc) external onlyVoters {\n        require(workflowStatus == WorkflowStatus.ProposalsRegistrationStarted, 'Proposals are not allowed yet');\n        require(keccak256(abi.encode(_desc)) != keccak256(abi.encode(\"\")), 'Vous ne pouvez pas ne rien proposer'); \n\n        Proposal memory proposal;\n        proposal.description = _desc;\n        proposalsArray.push(proposal);\n        emit ProposalRegistered(proposalsArray.length-1);\n    }\n\n    // ::::::::::::: VOTE ::::::::::::: //\n\n    /** @notice Voter can set his vote on an existing proposal \n    *   @param _id the ID of the proposal */\n    function setVote( uint _id) external onlyVoters {\n        require(workflowStatus == WorkflowStatus.VotingSessionStarted, 'Voting session havent started yet');\n        require(voters[msg.sender].hasVoted != true, 'You have already voted');\n        require(_id <= proposalsArray.length, 'Proposal not found'); \n\n        voters[msg.sender].votedProposalId = _id;\n        voters[msg.sender].hasVoted = true;\n        proposalsArray[_id].voteCount++;\n\n        emit Voted(msg.sender, _id);\n    }\n\n    // ::::::::::::: STATE ::::::::::::: //\n\n    /** @notice next workflowstatus : 0 -> 1 */\n    function startProposalsRegistering() external onlyOwner {\n        require(workflowStatus == WorkflowStatus.RegisteringVoters, 'Registering proposals cant be started now');\n        workflowStatus = WorkflowStatus.ProposalsRegistrationStarted;\n        emit WorkflowStatusChange(WorkflowStatus.RegisteringVoters, WorkflowStatus.ProposalsRegistrationStarted);\n    }\n\n    /** @notice next workflowstatus : 1 -> 2 */\n    function endProposalsRegistering() external onlyOwner {\n        require(workflowStatus == WorkflowStatus.ProposalsRegistrationStarted, 'Registering proposals havent started yet');\n        workflowStatus = WorkflowStatus.ProposalsRegistrationEnded;\n        emit WorkflowStatusChange(WorkflowStatus.ProposalsRegistrationStarted, WorkflowStatus.ProposalsRegistrationEnded);\n    }\n\n    /** @notice next workflowstatus : 2 -> 3 */\n    function startVotingSession() external onlyOwner {\n        require(workflowStatus == WorkflowStatus.ProposalsRegistrationEnded, 'Registering proposals phase is not finished');\n        workflowStatus = WorkflowStatus.VotingSessionStarted;\n        emit WorkflowStatusChange(WorkflowStatus.ProposalsRegistrationEnded, WorkflowStatus.VotingSessionStarted);\n    }\n\n    /** @notice next workflowstatus : 3 -> 4 */\n    function endVotingSession() external onlyOwner {\n        require(workflowStatus == WorkflowStatus.VotingSessionStarted, 'Voting session havent started yet');\n        workflowStatus = WorkflowStatus.VotingSessionEnded;\n        emit WorkflowStatusChange(WorkflowStatus.VotingSessionStarted, WorkflowStatus.VotingSessionEnded);\n    }\n\n    /** @notice compute the winner, then next workflowstatus : 4 -> 5 */\n    function tallyVotes() external onlyOwner {\n        require(workflowStatus == WorkflowStatus.VotingSessionEnded, \"Current status is not voting session ended\");\n        uint _winningProposalId;\n        for (uint256 p = 0; p < proposalsArray.length; p++) {\n            if (proposalsArray[p].voteCount > proposalsArray[_winningProposalId].voteCount) {\n                _winningProposalId = p;\n            }\n        }\n        winningProposalID = _winningProposalId;\n\n        workflowStatus = WorkflowStatus.VotesTallied;\n        emit WorkflowStatusChange(WorkflowStatus.VotingSessionEnded, WorkflowStatus.VotesTallied);\n    }\n}\n// https://ipfs.io/ipfs/QmaMhuvE9zCqkD4SqH9mdg4gQKt1LgTAbokfEraH8DKVUh",
  "sourcePath": "/home/cyril/dev/london/boxTest/contracts/Voting.sol",
  "compiler": {
    "name": "solc",
    "version": "0.8.7+commit.e28d00a7.Emscripten.clang"
  },
  "schemaVersion": "3.3.2",
  "updatedAt": "2021-12-02T12:00:14.889Z",
  "networkType": "ethereum",
  "devdoc": {
    "author": "Cyril Castagnet. ",
    "events": {
      "ProposalRegistered(uint256)": {
        "params": {
          "_proposalId": "the ID of the new proposal "
        }
      },
      "Voted(address,uint256)": {
        "params": {
          "_proposalId": "the ID of the proposal voted ",
          "_voter": "the address of the voter"
        }
      },
      "VoterRegistered(address)": {
        "params": {
          "_voterAddress": "the address of the registered voter "
        }
      },
      "WorkflowStatusChange(uint8,uint8)": {
        "params": {
          "_newStatus": "the status after ",
          "_previousStatus": "the status before "
        }
      }
    },
    "kind": "dev",
    "methods": {
      "addProposal(string)": {
        "params": {
          "_desc": "the description of the proposal "
        }
      },
      "addVoter(address)": {
        "params": {
          "_addr": "the address of the voter "
        }
      },
      "getOneProposal(uint256)": {
        "params": {
          "_id": "the id of the proposal "
        }
      },
      "getVoter(address)": {
        "params": {
          "_addr": "the address of the voter "
        }
      },
      "owner()": {
        "details": "Returns the address of the current owner."
      },
      "renounceOwnership()": {
        "details": "Leaves the contract without owner. It will not be possible to call `onlyOwner` functions anymore. Can only be called by the current owner. NOTE: Renouncing ownership will leave the contract without an owner, thereby removing any functionality that is only available to the owner."
      },
      "setVote(uint256)": {
        "params": {
          "_id": "the ID of the proposal "
        }
      },
      "transferOwnership(address)": {
        "details": "Transfers ownership of the contract to a new account (`newOwner`). Can only be called by the current owner."
      }
    },
    "stateVariables": {
      "proposalsArray": {
        "details": "array because we will loop on them "
      }
    },
    "title": "Voting contract",
    "version": 1
  },
  "userdoc": {
    "events": {
      "ProposalRegistered(uint256)": {
        "notice": "used to store the proposals registered"
      },
      "Voted(address,uint256)": {
        "notice": "used when a voter voter "
      },
      "VoterRegistered(address)": {
        "notice": "used to store the address of registered voters"
      },
      "WorkflowStatusChange(uint8,uint8)": {
        "notice": "used to listen on workflow status changes"
      }
    },
    "kind": "user",
    "methods": {
      "addProposal(string)": {
        "notice": "Voter can register a new proposal"
      },
      "addVoter(address)": {
        "notice": "Admin can register a voter "
      },
      "endProposalsRegistering()": {
        "notice": "next workflowstatus : 1 -> 2 "
      },
      "endVotingSession()": {
        "notice": "next workflowstatus : 3 -> 4 "
      },
      "getOneProposal(uint256)": {
        "notice": "Returns the proposal object of the given ID"
      },
      "getProposals()": {
        "notice": "Returns the proposal array "
      },
      "getVoter(address)": {
        "notice": "Returns the voter object of the given address"
      },
      "getWinner()": {
        "notice": "Returns the complete proposal  "
      },
      "proposalsArray(uint256)": {
        "notice": "set proposal storage "
      },
      "setVote(uint256)": {
        "notice": "Voter can set his vote on an existing proposal "
      },
      "startProposalsRegistering()": {
        "notice": "next workflowstatus : 0 -> 1 "
      },
      "startVotingSession()": {
        "notice": "next workflowstatus : 2 -> 3 "
      },
      "tallyVotes()": {
        "notice": "compute the winner, then next workflowstatus : 4 -> 5 "
      },
      "winningProposalID()": {
        "notice": "Store the ID of the winning poposal after tally votes "
      },
      "workflowStatus()": {
        "notice": "set the var we use for the contract state "
      }
    },
    "notice": "An owner can add voters, they can set proposals, then vote for them, and the choosen one win",
    "version": 1
  }
}